:020000040800F2
:1000000088BE0220BD020008D5020008094D000884
:10001000D9020008DB020008DD0200080000000031
:10002000000000000000000000000000DF020008E7
:10003000E10200080000000083030008A1C80008D6
:10004000E7020008E7020008E702000855B40008CC
:10005000E7020008E7020008E7020008E7020008DC
:10006000E7020008E7020008E7020008E7020008CC
:10007000E7020008E7020008E7020008E7020008BC
:10008000E7020008E7020008E7020008E7020008AC
:10009000E7020008E7020008E7020008E70200089C
:1000A000E7020008E7020008E7020008E70200088C
:1000B000E702000895C90008E7020008E702000807
:1000C000E7020008E7020008E7020008E70200086C
:1000D000E702000851D70008E7020008B1D700087E
:1000E000E70200083DB10008E7020008E702000847
:1000F000E7020008E7020008E7020008E70200083C
:10010000E702000895B70008C1C90008E702000827
:10011000E7020008E7020008E702000851CA0008E9
:10012000E7020008E7020008E7020008A93100081A
:10013000E7020008E7020008E7020008E7020008FB
:10014000E7020008E7020008E7020008E7020008EB
:10015000D9310008E7020008E7020008E7020008BA
:10016000E7020008E7020008E7020008E7020008CB
:10017000E7020008E7020008E702000800000000AC
:10018000E7020008E7020008E7020008E7020008AB
:10019000E7020008E7020008E7020008E70200089B
:1001A000E7020008E7020008E702000800F002F892
:1001B00000F075F80AA090E8000C82448344AAF18C
:1001C0000107DA4501D100F06AF8AFF2090EBAE88A
:1001D0000F0013F0010F18BFFB1A43F0010318477B
:1001E00010020300300203000A444FF0000C10F824
:1001F000013B13F0070408BF10F8014B1D1108BFA5
:1002000010F8015B641E05D010F8016B641E01F844
:10021000016BF9D113F0080F1EBF10F8014BAD1C94
:100220000C1B09D16D1E58BF01F801CBFAD505E0B2
:1002300014F8016B01F8016B6D1EF9D59142D6D30C
:10024000704700000023002400250026103A28BF34
:1002500078C1FBD8520728BF30C148BF0B60704738
:1002600066291FF07586642901F00680752901F062
:100270000380782901F06780732901F0448600200B
:1002800070471FB51FF05FFE01F0C4FE04000020A0
:1002900000211FF0ABF9E0601FBD10B510BD01F0EB
:1002A00077FF1146FFF7EDFF18F01EFD01F095FFF7
:1002B00003B4FFF7F2FF03BC0EF074F80D480168B9
:1002C00041F4700101600C48016821F04041016077
:1002D0000A480047FEE7FEE7FEE7FEE7FEE7FEE727
:1002E000FEE7FEE7FEE7FEE705480649044A064B3F
:1002F0007047000088ED00E034EF00E0AD01000839
:1003000088AE022088BE022088AE0220EFF3098169
:1003100041B1F1EE101A40F8041D20ED200A2949E0
:100320000A6810607047B0EC200A02C8E1EE101AAB
:1003300025490A6810607047EFF3108072B6704765
:1003400080F31088704721484FF6FF71017000203C
:1003500080F309881E48016881F308881D4801213F
:1003600001701D484FF08051016062B6FEE71A48E7
:100370004FF080510160704717484FF08051016085
:10038000704772B6EFF3098028B1203880E8F00F8B
:100390000C490968086000B5104880475DF804EB17
:1003A0000F4810490A780270064807490A68026037
:1003B000106890E8F00F203080F309884EF0F40EBA
:1003C00062B67047EC010020F401002022ED00E04D
:1003D00010020020D301002004ED00E099A70008DE
:1003E000D0010020D10100202DE9F04F82B0019012
:1003F0004FF000744FF000784FF000054FF0000907
:1004000052F804CB52F804EB0868CB6DC0FB0C45E6
:10041000D1F88000CEF1000EC3FB0E45D1F8DC30E0
:10042000C0FB0C89C3FB0E8952F804CB52F804EBD5
:1004300048688B6DC0FB0C45D1F88400CEF1000EEE
:10044000C3FB0E45D1F8D830C0FB0C89C3FB0E8925
:1004500052F804CB52F804EB88684B6DC0FB0C4596
:10046000D1F88800CEF1000EC3FB0E45D1F8D43090
:10047000C0FB0C89C3FB0E8952F804CB52F804EB85
:10048000C8680B6DC0FB0C45D1F88C00CEF1000E96
:10049000C3FB0E45D1F8D030C0FB0C89C3FB0E89DD
:1004A00052F804CB52F804EB0869CB6CC0FB0C4546
:1004B000D1F89000CEF1000EC3FB0E45D1F8CC3040
:1004C000C0FB0C89C3FB0E8952F804CB52F804EB35
:1004D00048698B6CC0FB0C45D1F89400CEF1000E3E
:1004E000C3FB0E45D1F8C830C0FB0C89C3FB0E8995
:1004F00052F804CB52F804EB88694B6CC0FB0C45F6
:10050000D1F89800CEF1000EC3FB0E45D1F8C430EF
:10051000C0FB0C89C3FB0E8952F804CB52F804EBE4
:10052000C8690B6CC0FB0C45D1F89C00CEF1000EE5
:10053000C3FB0E45D1F8C030C0FB0C89C3FB0E894C
:1005400001984FF4FE4E4EF0FF0E4FEA946444EAD9
:1005500085144FEAE47CBCEBE43F18BF8CEA0E0440
:100560004FEA986848EA89184FEAE87CBCEBE83F14
:1005700018BF8CEA0E080480A0F8028002F57072A1
:1005800001F580514FF000744FF000784FF00005F6
:100590004FF0000952F804CB0868D1F88030C0FB56
:1005A0000C45C3FB0C8952F804CB4868D1F8843061
:1005B000C0FB0C45C3FB0C8952F804CB8868D1F80A
:1005C0008830C0FB0C45C3FB0C8952F804CBC868CB
:1005D000D1F88C30C0FB0C45C3FB0C8952F804CB1E
:1005E0000869D1F89030C0FB0C45C3FB0C8952F868
:1005F00004CB4869D1F89430C0FB0C45C3FB0C898F
:1006000052F804CB8869D1F89830C0FB0C45C3FB85
:100610000C8952F804CBC869D1F89C30C0FB0C455A
:10062000C3FB0C8901984FF4FE4E4EF0FF0E4FEACB
:10063000946444EA85144FEAE47CBCEBE43F18BFC1
:100640008CEA0E044FEA986848EA89184FEAE87C79
:10065000BCEBE83F18BF8CEA0E08A0F84040A0F8B9
:100660004280A2F57872A1F570614FF00F0C00F195
:100670000400CDF800C001904FF000744FF00078F6
:100680004FF000764FF0007A4FF000054FF0000970
:100690004FF000074FF0000B52F804CB52F804EB78
:1006A0000868CB6DC0FB0C45C0FB0E67CEF1000E99
:1006B000C3FB0C67C3FB0E45D1F8DC30D1F88000DA
:1006C000C3FB0E89C3FB0CABCEF1000EC0FB0C8943
:1006D000C0FB0EAB52F804CB52F804EB48688B6DAC
:1006E000C0FB0C45C0FB0E67CEF1000EC3FB0C67D0
:1006F000C3FB0E45D1F8D830D1F88400C3FB0E8976
:10070000C3FB0CABCEF1000EC0FB0C89C0FB0EABE3
:1007100052F804CB52F804EB88684B6DC0FB0C45D3
:10072000C0FB0E67CEF1000EC3FB0C67C3FB0E458A
:10073000D1F8D430D1F88800C3FB0E89C3FB0CABD1
:10074000CEF1000EC0FB0C89C0FB0EAB52F804CBFF
:1007500052F804EBC8680B6DC0FB0C45C0FB0E677C
:10076000CEF1000EC3FB0C67C3FB0E45D1F8D030B1
:10077000D1F88C00C3FB0E89C3FB0CABCEF1000E8D
:10078000C0FB0C89C0FB0EAB52F804CB52F804EB53
:100790000869CB6CC0FB0C45C0FB0E67CEF1000EA8
:1007A000C3FB0C67C3FB0E45D1F8CC30D1F89000E9
:1007B000C3FB0E89C3FB0CABCEF1000EC0FB0C8952
:1007C000C0FB0EAB52F804CB52F804EB48698B6CBB
:1007D000C0FB0C45C0FB0E67CEF1000EC3FB0C67DF
:1007E000C3FB0E45D1F8C830D1F89400C3FB0E8985
:1007F000C3FB0CABCEF1000EC0FB0C89C0FB0EABF3
:1008000052F804CB52F804EB88694B6CC0FB0C45E2
:10081000C0FB0E67CEF1000EC3FB0C67C3FB0E4599
:10082000D1F8C430D1F89800C3FB0E89C3FB0CABE0
:10083000CEF1000EC0FB0C89C0FB0EAB52F804CB0E
:1008400052F804EBC8690B6CC0FB0C45C0FB0E678B
:10085000CEF1000EC3FB0C67C3FB0E45D1F8C030D0
:10086000D1F89C00C3FB0E89C3FB0CABCEF1000E8C
:10087000C0FB0C89C0FB0EAB01F5807101984FF4F1
:10088000FE4E4EF0FF0E4FEA946444EA85144FEAA0
:10089000E47CBCEBE43F18BF8CEA0E044FEA986896
:1008A00048EA89184FEAE87CBCEBE83F18BF8CEABD
:1008B0000E084FEA966646EA87164FEAE67CBCEBDE
:1008C000E63F18BF8CEA0E064FEA9A6A4AEA8B1A8C
:1008D0004FEAEA7CBCEBEA3F18BF8CEA0E0ADDF86F
:1008E00000C000EBCC0E2EF8026B2EF802AB20F805
:1008F000024B20F8028BBCF1010C7FF4BAAE02B0BF
:10090000BDE8F08F2DE9F04F82B001904FF00074F8
:100910004FF0000552F804CB52F804EB0868CB6D99
:10092000CEF1000EC0FB0C45C3FB0E4552F804CBC4
:1009300052F804EB48688B6DCEF1000EC0FB0C45FD
:10094000C3FB0E4552F804CB52F804EB88684B6D9C
:10095000CEF1000EC0FB0C45C3FB0E4552F804CB94
:1009600052F804EBC8680B6DCEF1000EC0FB0C45CD
:10097000C3FB0E4552F804CB52F804EB0869CB6C6C
:10098000CEF1000EC0FB0C45C3FB0E4552F804CB64
:1009900052F804EB48698B6CCEF1000EC0FB0C459D
:1009A000C3FB0E4552F804CB52F804EB88694B6C3C
:1009B000CEF1000EC0FB0C45C3FB0E4552F804CB34
:1009C00052F804EBC8690B6CCEF1000EC0FB0C456D
:1009D000C3FB0E4501984FF4FE4E4EF0FF0E4FEA5A
:1009E000946444EA85144FEAE47CBCEBE43F18BF0E
:1009F0008CEA0E04048002F5707201F580514FF00C
:100A000000744FF0000552F804CB0868C0FB0C4599
:100A100052F804CB4868C0FB0C4552F804CB8868F8
:100A2000C0FB0C4552F804CBC868C0FB0C4552F81B
:100A300004CB0869C0FB0C4552F804CB4869C0FBE5
:100A40000C4552F804CB8869C0FB0C4552F804CB26
:100A5000C869C0FB0C4501984FF4FE4E4EF0FF0EE6
:100A60004FEA946444EA85144FEAE47CBCEBE43F2B
:100A700018BF8CEA0E040484A2F57872A1F57061A7
:100A80004FF00F0C00F10200CDF800C001904FF0C4
:100A900000744FF000764FF000054FF0000752F859
:100AA00004CB52F804EB0868CB6DC0FB0C45C0FBCF
:100AB0000E67CEF1000EC3FB0E45C3FB0C6752F868
:100AC00004CB52F804EB48688B6DC0FB0C45C0FBAF
:100AD0000E67CEF1000EC3FB0E45C3FB0C6752F848
:100AE00004CB52F804EB88684B6DC0FB0C45C0FB8F
:100AF0000E67CEF1000EC3FB0E45C3FB0C6752F828
:100B000004CB52F804EBC8680B6DC0FB0C45C0FB6E
:100B10000E67CEF1000EC3FB0E45C3FB0C6752F807
:100B200004CB52F804EB0869CB6CC0FB0C45C0FB4E
:100B30000E67CEF1000EC3FB0E45C3FB0C6752F8E7
:100B400004CB52F804EB48698B6CC0FB0C45C0FB2E
:100B50000E67CEF1000EC3FB0E45C3FB0C6752F8C7
:100B600004CB52F804EB88694B6CC0FB0C45C0FB0E
:100B70000E67CEF1000EC3FB0E45C3FB0C6752F8A7
:100B800004CB52F804EBC8690B6CC0FB0C45C0FBEE
:100B90000E67CEF1000EC3FB0E45C3FB0C6701F5DB
:100BA000807101984FF4FE4E4EF0FF0E4FEA9464B0
:100BB00044EA85144FEAE47CBCEBE43F18BF8CEABE
:100BC0000E044FEA966646EA87164FEAE67CBCEBCF
:100BD000E63F18BF8CEA0E06DDF800C000EB8C0E75
:100BE0002EF8026B20F8024BBCF1010C7FF44CAFE5
:100BF00002B0BDE8F08F000081FB00207047014685
:100C00004FF0000081EAE170A0EBE1707047000056
:100C10002DE9FE4F8446D0F800E0DCF804B00EF178
:100C2000BC0292E80C040CF11C0696E8C003BBEB76
:100C30000A0ACEF8C4A0CEF8C8B00BFB06F00AFB37
:100C4000070003FB080002FB0900C8BF6FF0000AA1
:100C5000B8BF4FF0010ABBF1000FC8BF6FF0000B27
:100C6000B8BF4FF0010BCEF844A0CEF848B0DCF886
:100C70000C60DCF810700EF1980292E81C04C6EBD0
:100C80004616A7EB661BCCF80C700CF13C0595E8FA
:100C9000E003BBEB0A0ACEF8A4A0CEF8A8B00BFB89
:100CA00005F10AFB061104FB071103FB081102FB07
:100CB0000911C8BF6FF0000AB8BF4FF0010ABBF1BD
:100CC000000FC8BF6FF0000BB8BF4FF0010BCEF89C
:100CD00024A0CEF828B0009A00EB6100DCF81840A0
:100CE0001368C4EB441403EBA021CCF8041001EB0F
:100CF0006411CCF8181042F8041B0092002B39D074
:100D00000EF118021CCA1EDBA5EB0B05A6EB0A06AA
:100D1000A9EB0209A8EB0308A7EB04070CF13C00C0
:100D200080E8E0030CF11C0191E83C000EF13C0668
:100D300096E8C003A5EB0605A4EB0704A3EB0803A4
:100D4000A2EB090214E05D445644914498442744C0
:100D50000CF13C0080E8E0030CF11C0191E83C0040
:100D60000EF13C0696E8C00335443C4443444A44F3
:100D700081E83C00DCF808B00EF17C0292E80C043B
:100D80000CF12C0696E8C003BBEB0A0ACEF884A04F
:100D9000CEF888B00BFB06F00AFB070003FB080047
:100DA00002FB0900C8BF6FF0000AB8BF4FF0010A8C
:100DB000BBF1000FC8BF6FF0000BB8BF4FF0010BC5
:100DC000CEF834A0CEF838B0DCF81460DCF8187037
:100DD0000EF1580292E81C04C6EB4616A7EB661B00
:100DE000CCF814700CF1500595E8E003BBEB0A0A4F
:100DF000CEF864A0CEF868B00BFB05F10AFB061133
:100E000004FB071103FB081102FB0911C8BF6FF0B7
:100E1000000AB8BF4FF0010ABBF1000FC8BF6FF066
:100E2000000BB8BF4FF0010BCEF810A0CEF814B0F5
:100E3000019A00EB6100DCF810401368C4EB441425
:100E400003EBA021CCF8081001EB6411CCF81010D2
:100E500042F8041B0192002B39D00EF104021CCA87
:100E60001EDBA5EB0B05A6EB0A06A9EB0209A8EB16
:100E70000308A7EB04070CF1500080E8E0030CF135
:100E80002C0191E83C000EF12C0696E8C003A5EB7E
:100E90000605A4EB0704A3EB0803A2EB090214E088
:100EA0005D4456449144984427440CF1500080E836
:100EB000E0030CF12C0191E83C000EF12C0696E8C1
:100EC000C00335443C4443444A4481E83C000EF1AD
:100ED000040E0CF1640BAEF5006A0298DA4509D0F5
:100EE000401E18BF02907FF498AECCF800E003B02B
:100EF000BDE8F08FBEE8FF03ABE8FF03BEE8FF03E9
:100F0000ABE8FF03BEE8FF03ABE8FF03BEE8FF0367
:100F1000ABE8FF03BEE8FF03ABE8FF0302980CF168
:100F2000640E401E18BF02907FF477AEDDE72DE916
:100F3000F64F8446D0F800E0DCF804B00EF1BC02B5
:100F400092E80C040CF11C0595E8C003BBEB0A0AFF
:100F5000CEF8C4A0CEF8C8B00BFB06F00AFB070021
:100F600003FB080002FB0900C8BF6FF0000AB8BF0E
:100F70004FF0010ABBF1000FC8BF6FF0000BB8BF04
:100F80004FF0010BCEF844A0CEF848B0009ADCF840
:100F900018401368C4EB441403EBA021CCF80410F0
:100FA00001EB6411CCF8181042F8041B0092002BDE
:100FB00013D0DEF83C20DEF8403008DBA6EB0B0651
:100FC000A7EB0A07A9EB0209A8EB030803E05E44BC
:100FD00057449144984485E8C0030EF1040E0CF187
:100FE000640BAEF5006A0198DA4508D0401E18BFC0
:100FF0000190A1D1CCF800E002B0BDE8F08FBEE8CE
:10100000FF03ABE8FF03BEE8FF03ABE8FF03BEE866
:10101000FF03ABE8FF03BEE8FF03ABE8FF03BEE856
:10102000FF03ABE8FF0301980CF1640E401E18BFEC
:10103000019081D1DEE7704753EA020C00F069802D
:101040002DE9F04B4FF00006002B1FBFB3FA83F5DC
:1010500003FA05F424FA05F65E4012BF1643B2FA0D
:1010600082F502FA05F4C5F120051EBF22FA05FC3F
:1010700044EA0C04203556EA044C4FEA144418BFE5
:10108000641C4FF000084FF00009904271EB030C14
:1010900039D3002919BFB1FA81F701FA07F6B0FA7E
:1010A00080F700FA07F6C7F120071EBF20FA07FCF9
:1010B00046EA0C062037B6FBF4FCA7EB0507103F09
:1010C00007F01F0BCBF120060CFA0BFB2CFA06F6EF
:1010D00044BFB3460026202FA4BF5E464FF0000B4E
:1010E0005BEA060C08BF4FF0010B19EB0B09ABFBD9
:1010F000027C48EB0608C01B06FB02CC0BFB03CCB2
:1011000071EB0C01C1E70B46024641464846BDE87B
:10111000F08B13B54FF000004FF00001AFF30080EB
:10112000BDE81C407047B2F120030AD5C2F120038C
:1011300020FA02F001FA03F341FA02F140EA030057
:10114000704741FA03F04FEAE171704710B54C1057
:1011500084EA530404D54042C1F1000138BF491E5E
:101160001B4204D55242C3F1000338BF5B1EFFF798
:1011700063FF14F0804F04D04042C1F1000138BF3A
:10118000491E14F0004F04D05242C3F1000338BF8F
:101190005B1E10BD0FB4044910B503AA029800F0FD
:1011A000B7FE10BC5DF814FB080000200FB41CB59E
:1011B000084B06AA7B4469460090059800F079FE2A
:1011C00004460020694600F087FE20461CBC5DF8FE
:1011D00014FB0000210D000070B50446856900680D
:1011E000C10601D5302600E02026C00707D070BD1B
:1011F000D4E9012130469047206A401C20626D1ED0
:10120000F6D570BD70B5044685690078C00707D172
:1012100070BDD4E9012120209047206A401C206243
:101220006D1EF6D570BD70B50C460546012A05D079
:101230002878800600D5EA69002302E0012305E052
:101240005B1C934202D2E05C0028F9D1A869E61841
:10125000C01AA861286A184428622846FFF7BCFF14
:1012600004E0D5E9012114F8010B9047B442F8D30A
:101270002846FFF7C7FF70BD2DE9F0410646002460
:1012800010687529314616A510D0AFF300800028EC
:1012900002DA404213A507E031688A0701D512A59A
:1012A00002E0490704D511A5012401E0AFF3008055
:1012B00000210A2206F1240709E0B0FBF2FCB0FB92
:1012C000F2F302FB1C00303078541846491C002809
:1012D000F3D123462A463046BDE8F04100F07EBBFC
:1012E000000000002D0000002B0000002000000086
:1012F000F0B40D460188090502D5214C7C4402E07A
:101300001F4C7C440E34002100F1240608E002F05A
:101310000F071209E75D42EA03721B097754491C63
:1013200052EA0307F3D102780023120704D5702D87
:1013300006D009B1022311342246F0BC00F04EBBA6
:1013400001231034F8E770B504460D4621461068B5
:10135000AFF30080024629462046BDE870400023D6
:10136000C6E7D21D22F00703D3E90023C0E70368D4
:10137000126843F0200303600823C3610023B7E72A
:101380006CE702002DE9F05F894604464FF0000A41
:10139000DFF874B1FB44C0F820A02046E16888471C
:1013A000002874D0252806D0D4E901219047206A6E
:1013B000401C2062F1E700265F462046E16888472E
:1013C0002028054607DB312D05D2781910F8200CAE
:1013D00008B10643F1E7B00701D526F00406C4F8CA
:1013E0001CA00027C4F818A02A2D09D028460CF00C
:1013F000D2FF38B304EB8708303DC8F8185019E025
:1014000059F8041B204604EB87029161E168884784
:10141000012F054618D1E069002820DA26F02006C1
:101420001DE0D8F8180000EB800005EB40003038D4
:10143000C8F818002046E168884705460CF0ABFF65
:101440000028EED1012F0AD02E2D08D12046E168C8
:1014500088477F1C0546022F46F02006C4DBA069A2
:10146000002803DA404246F00106A061F00701D0EF
:1014700026F010066C2D0BD0682D09D04C2D39D0DC
:101480006A2D35D0742D35D07A2D33D016E038E062
:10149000E1682F4620468847B842054609D16C2F9F
:1014A00026D04FF48060E168064320468847054611
:1014B00004E06C2F1AD04FF4807006430DB3A5F1F1
:1014C0004100192802D8203546F400664A462946CC
:1014D000204626604E46FEF7C3FE80B101280BD0A1
:1014E000F61D26F0070000F1080956E74020E4E762
:1014F0008020D8E70020D6E706F104094DE728460A
:1015000052E7206ABDE8F09FFCE6020030B50546D0
:101510000B462A4613F8014B12F8010B08B1A04202
:10152000F8D01CB1002802D06D1CF1E7284630BD70
:1015300040EA010310B59B070FD1042A0DD310C850
:1015400008C9121F9C42F8D020BA19BA884201D9A2
:10155000012010BD4FF0FF3010BD1AB1D30703D0EA
:10156000521C07E0002010BD10F8013B11F8014BA0
:101570001B1B07D110F8013B11F8014B1B1B01D1BC
:10158000921EF1D1184610BD40EA0103024630B563
:101590009B0710D14FF0013400E008C208C91D1BA1
:1015A0009D4315EAC41FF8D013F0FF0102F8011B98
:1015B0000DD01B0AF8E711F8013B002B02F8013BA4
:1015C00005D011F8013B002B02F8013BF3D130BDEF
:1015D00010B5431C02E010F8011B71B18107FAD16C
:1015E0004FF0013202C88C1A8C4314EAC211F9D0B0
:1015F000C01A0A0603D0C01E10BDC01A10BD0A04CE
:1016000001D0801E10BD0902FCD0401E10BD40EA72
:10161000010370B59B072ED14FF00136042A2AD35F
:1016200008C810C99D1B9D43121F15EAC61517D087
:10163000D8B2E1B2401A50EA056110D198B2A1B215
:10164000401A50EA05410AD123F07F4024F07F413F
:10165000401A50EA052102D1180EA0EB146070BDAB
:10166000A342DBD018BA21BA884201D9012070BD4B
:101670004FF0FF3070BD0AB9002070BD10F8013B7B
:1016800011F8014B63B1A3420AD1521E08D010F8E1
:10169000013B11F8014B1BB1A34201D1521EEDD108
:1016A000181B70BD421E12F8013F002BFBD111F830
:1016B000013B002B02F8013BF9D17047032A40F2AD
:1016C000308010F0030C00F0158011F8013BBCF1E4
:1016D000020F624498BF11F801CB00F8013B38BFFC
:1016E00011F8013BA2F1040298BF00F801CB38BF0A
:1016F00000F8013B11F0030300F01C84083AC0F02D
:10170000088051F8043B083A51F804CBA0E80810CF
:10171000F5E7121D5CBF51F8043B40F8043BAFF302
:101720000080D20724BF11F8013B11F801CB48BF5C
:1017300011F8012B24BF00F8013B00F801CB48BF92
:1017400000F8012B7047431A28BF9A427FF6B6AFC4
:10175000032A1044114440F2268010F0030F1EBFEC
:1017600011F8013D521E00F8013D10F0030F7FF407
:10177000F6AF11F0030300F02284083AC0F00B80AA
:1017800051F8043D083A51F804CD40F8043D40F8C2
:1017900004CDFFF7F3BF121D5CBF51F8043D40F8C4
:1017A000043DAFF30080D20724BF11F8013D11F8CA
:1017B00001CD48BF11F8012C24BF00F8013D00F80D
:1017C00001CD48BF00F8012C70474FF000020429FA
:1017D000C0F0128010F0030C00F01B80CCF1040C60
:1017E000BCF1020F18BF00F8012BA8BF20F8022B94
:1017F000A1EB0C0100F00DB85FEAC17C24BF00F83A
:10180000012B00F8012B48BF00F8012B70474FF067
:10181000000200B5134694469646203922BFA0E840
:101820000C50A0E80C50B1F12001BFF4F7AF09074C
:1018300028BFA0E80C5048BF0CC05DF804EB89003D
:1018400028BF40F8042B08BF704748BF20F8022B80
:1018500011F0804F18BF00F8012B704710B50446F7
:1018600010F0030F08BF11F0030F40F015804FF088
:10187000013E121FC0F20E8051F8043BA3EB0E0C88
:101880002CEA030C1CEACE1C08BF40F8043BF0D045
:10189000A1F1040102F10402521E08DB11F8013B20
:1018A000002B00F8013BF7D11146FFF78EFF2046D1
:1018B00010BD00004FF0013C50F8042B51F8043BE0
:1018C0009A4221D1A2EB0C03934313EACC1317D114
:1018D00050F8042B51F8043B9A4215D1A2EB0C03AB
:1018E000934313EACC130BD150F8042B51F8043B6B
:1018F0009A4209D1A2EB0C03934313EACC13DBD039
:101900004FF00000704700BFD01A01BAB1FA81F160
:1019100001F0180122FA01F0CB40C1F12001DBB245
:10192000C0B2C01A2CFA01F3D11A914311EAC311C3
:10193000E6D17047704770477047704730B5B0F1D7
:101940000A024FEA900E71F100034EEA817EB0EB7D
:101950000E0061EB91014FEA101E4EEA017E10EB82
:101960000E0041EB11114FEA102E4EEA016E10EB02
:101970000E0041EB11214FEA104E4EEA014E10EBE2
:101980000E0041EB1141401841F100014FEAD00037
:1019900040EA41704FEAD10110EB80054FEA810423
:1019A00044EA907444EB01046D1944EB0404521BA7
:1019B000A3414FF0000348BF0A3200D530BD401CA0
:1019C00041F1000130BD10B500F028FB006810BDEA
:1019D00010B5044600F022FB046010BD2DE9F0476D
:1019E0000D4699469246044600F12408016888068F
:1019F00004D5E06921F01001216000E00120A84237
:101A000001DD471B00E00027A1697A1902EB0900FC
:101A1000081AA0612078C00602D42046FFF7DCFB3C
:101A2000002608E0D4E901211AF806009047206A50
:101A3000401C761C20624E45F4DB2078C0060AD597
:101A40002046FFF7C9FB06E0D4E90121302090478A
:101A5000206A401C2062381EA7F10107F4DC07E071
:101A6000D4E9012118F805009047206A401C206243
:101A7000281EA5F10105F3DC2046FFF7C3FB207803
:101A8000000602D50220BDE8F0870120FBE7704781
:101A90002DE9FF4F0C461E464FF0FF378BB0D2E9C1
:101AA0000001DDF860800A908A46C1F30A5505B945
:101AB0003D46002108464FF00000BAF1000F00F447
:101AC000400005DA00EB80004FF4400101EA5000CD
:101AD0004FEA9059B9F1010F00DDB9460A9850EA72
:101AE0004A000ED044F61050A5F2FF3545432F149E
:101AF000B8F1000F1ED07542291E1EDDC9F100028B
:101B00001CE0B8F1010F4FF0000001D0302103E0DC
:101B1000F24305E02154401CB042FBDB304600227A
:101B2000002121540B99C1F80880C1E900200FB0B1
:101B3000BDE8F08FBD1B6D1CDEE74A4600DA694246
:101B400006A800F0AFFA06AB93E8070003AB83E802
:101B5000070050460A9900F049FB8DE80700A0F500
:101B600000501F3800900398002D09DD42F21F013C
:101B70004A46084403A90390684600F0A8FD08E01F
:101B8000A0F500504A461F3803A90390684600F0AC
:101B9000B2FD8DE807000004000C03D04FF0FF30C9
:101BA000410800E01046B8F1000F03D00022009277
:101BB00015461EE0751E05D4FFF7C0FE3032625593
:101BC0006D1EF9D5B3460122084302D000227F1CC6
:101BD00004E02078302801D100227F1E002A0997D6
:101BE00086D01DE0112D07DAFFF7A8FE30326255CE
:101BF0006D1C50EA0102F5D1084302D00098C8B12B
:101C00000EE00021681E05E0235C625C63542254F0
:101C1000401E491C8142F7DBAB46A81B401E0990C1
:101C2000002004F80B000B98099AC0F80880C0E95E
:101C3000002B7CE711264FF0000859E72DE9F04F03
:101C400088460446D21D22F0070191B0D1E9000177
:101C5000CDE90A010CF04AFB02460B98C00F01D0F7
:101C60002D2007E02068810701D52B2002E02021EC
:101C700001EAC000032A099001D0072A05DB0346C8
:101C80004146204600F0CEF90BE12078800601D5D0
:101C9000E06900E00620B8F1650F814606D0B8F192
:101CA000660F18D0B8F1670F70D131E00020B9F19C
:101CB000110F009001DB112301E009F101030AAAD1
:101CC00001A90CA8FFF7E4FEDDE90C70002609F17C
:101CD0000105834647E001204B4600904FF0004746
:101CE0000AAA01A90CA8FFF7D3FEDDE90DB00C99F3
:101CF0005D46002610B909F101000D18B9EB050089
:101D000003D4C0F1FF3609F10105A5EB09002BE072
:101D1000B9F1010F01DA4FF001090020B9F1110FFB
:101D20000090484601DD112300E003460AAA01A9FC
:101D30000CA8FFF7ADFEDDE90C704D46002683468A
:101D4000207800070AD4AB4500DA5D4601A8012DD2
:101D500004DD411911F8011C302907D04F4502DA82
:101D600017F1040F04DA012082460FE06D1EEEE742
:101D7000002F02DCED1B3E4403E0781CA84200DD8E
:101D80007D1CB81B00F1010A4FF0004720780007C6
:101D900003D4AA4501DB4FF0FF3A0021B7F1004F11
:101DA0000DF143088DF8431024D002202B23002F7F
:101DB00001DA7F422D230A21021EA0F1010000DC7E
:101DC0005FB197FBF1FC97FBF1F201FB1C7C17461E
:101DD0000CF1300C08F801CDEEE7A8F1010003701A
:101DE0002188090501D5452100E06521A0F1010800
:101DF00000F8011C09980FA9A1EB0807FF1D00B10D
:101E00000120411901EBEA70A1693844081A401E0B
:101E1000A0612078C00602D42046FFF7DDF90998BA
:101E200028B1D4E901219047206A401C2062207823
:101E3000C00622D52046FFF7CFF91EE0002E04DBB6
:101E4000B34502DD01A8805D00E03020D4E9012126
:101E50009047206A401C2062761CAAF101005FEACC
:101E6000000A0AD100F0D6F8C0680168405CD4E9E5
:101E700001219047206A401C2062281EA5F101051F
:101E8000DCDC07E0D4E9012118F8010B9047206A57
:101E9000401C2062381EA7F10107F3DC2046FFF743
:101EA000B1F9032011B043E601694A1C02610878C8
:101EB000704700B58FB0CDE901310021059105498A
:101EC0007944CDE9031011466846FFF75BFA0FB07D
:101ED00000BD0000E5FFFFFF0A6802F8010B0A6081
:101EE000704710B5436913B1AFF3008001E0FFF70D
:101EF0009AF9012010BD127800F124010A70002225
:101F00004A700122EDE711684FF0FF32E9E7000067
:101F1000074B70B50D467B44FFF7CBFF04462846C0
:101F200000F02EF910B14FF0FF3070BD204670BDAB
:101F3000DF3F010010B5203AC0F00B80B1E8185027
:101F4000203AA0E81850B1E81850A0E81850BFF4A3
:101F5000F5AF5FEA027C24BFB1E81850A0E8185042
:101F600044BF18C918C0BDE810405FEA827C24BF96
:101F700051F8043B40F8043B08BF7047D20728BF24
:101F800031F8023B48BF11F8012B28BF20F8023B73
:101F900048BF00F8012B7047431A28BF9A427FF6CA
:101FA000C9AF104410F0030F11441EBF11F8013DDA
:101FB000521E00F8013D10F0030F7FF4F6AF103A07
:101FC000C0F00A8010B531E91850103A20E91850D5
:101FD000BFF4F9AFBDE81040530724BF31E9081042
:101FE00020E9081044BF51F8043D40F8043D12F0C8
:101FF000030F08BF7047D20728BF31F8023D48BF22
:1020000011F8012C28BF20F8023D48BF00F8012C30
:10201000704700000048704748AE022000487047F3
:1020200028AE02202DE9F0411F4604460326016830
:10203000072A01F4006004DB08B116A505E016A527
:1020400003E008B115A500E015A521F010002060FF
:10205000A069C01EA0610FB1401EA0612046FFF71D
:10206000BBF84FB1D4E9012138469047206A401CA3
:102070002062C01C206206E0206AFAE7D4E9012150
:1020800015F8010B9047761EF8D22046FFF7BAF8F4
:10209000BDE8F0814E414E006E616E00494E460033
:1020A000696E66002DE9F047814616468AB03348CE
:1020B00078440DC88DE80D0030487844801C03AC8E
:1020C0000DC884E80D0041F69B300844372190FB91
:1020D000F1F290FBF1F5A5F1800501FB12041B3C28
:1020E00002D56442012000E00020DFF890A0804685
:1020F0000027FA44AAF1BE0A0DE0E00709D03246F3
:10210000684607EB47010AEB810100F0F4FA8DE81D
:10211000070064107F1C002CEFD1184F7F44AC3FA8
:1021200018E0E80714D007EB04100DF1180A90E846
:102130000E008AE80E00C068F04201D1981908909C
:10214000324606A903A800F0D6FA03AB83E80700DD
:102150006D10641C002DE4D132466946B8F1000FC1
:1021600003A802D000F0B3FA01E000F0C4FAC9E914
:102170000001C9F808200AB0BDE8F08770DA020053
:10218000007B00F0800070470048704728AE0220B6
:102190007546FFF7F9FFAE4605006946534620F045
:1021A0000700854618B020B5FEF79EF8BDE8204030
:1021B0004FF000064FF000074FF000084FF0000B03
:1021C00021F00701AC46ACE8C009ACE8C009ACE8B6
:1021D000C009ACE8C0098D46704710B50446AFF39E
:1021E00000802046BDE81040FEF762B85FEA400C70
:1021F00008BF91F0000F4FEA8C234FEAC12243EA57
:1022000051514FEA1C5018BF00F5F0404FEA300022
:1022100018BF41F000415FEA6C5C00F02980BCF11E
:10222000FF3F08BF40F080407047130C06BF120408
:102230004FF0100C4FF0000C130E04BF12020CF103
:10224000080C130F04BF12010CF1040C930F04BF10
:1022500092000CF1020CD30F04BF52000CF1010CE0
:1022600011464FF00002A0F11F00A0EB0C007047D8
:1022700011F0004F08BF704731F000413FF4D5AF77
:102280000B0C06BF09044FF0100C4FF0000C0B0EA6
:1022900004BF09020CF1080C0B0F04BF09010CF17B
:1022A000040C8B0F04BF89000CF1020CCB0F04BF90
:1022B00049000CF1010CCCF12003A0EB0C0022FA38
:1022C00003F302FA0CF241EA030100F10100704746
:1022D00020F07F4C80EA030023F07F47ACEB07033C
:1022E00003F57C5300F0004003F1FF032DE9804922
:1022F0004FEA154B09B44FEA144325EA0B4E24EA82
:1023000003480FF2042606EB132749083E785FEADC
:10231000320203FB0667C7F5000707FB06F64FEA24
:1023200054374FEAD64606F1020607FB066CCCF19D
:10233000005C4FEA1C472CEA074C07FB06F40CFB39
:1023400006F504EB15464FEA961634BF00204FF011
:1023500000404FEAD13706FB07FC4FEA1C4C0CFB50
:102360000BF7D21B03FB0CF761EB07010CFB0EF71D
:10237000B0EB074072EB17420CFB08F734BFA2EB3F
:102380000742B2EB074261EB17414FEA0C444FEAB8
:10239000910706FB07FC4FEA1C4C0CFB0BF7B0EB5C
:1023A000C74072EB573203FB0CF734BFA2EBC742B6
:1023B000B2EBC74261EB57310CFB0EF7B0EBC70035
:1023C00072EB57720CFB08F734BFA2EBC702B2EBFB
:1023D000C70261EB5771039F4FEA816141EA921195
:1023E00004EBCC044FEAD1374FEA826206FB07FCCC
:1023F00042EA90124FEA80604FEA1C4C0CFB0BF74C
:10240000D21B03FB0CF761EB07010CFB0EF7B0EBE3
:10241000074072EB17420CFB08F734BFA2EB0742F0
:10242000B2EB074261EB17414FEA8C554FEA910737
:1024300004EB9C2406FB07FC4FEA1C4C0CFB0BF73F
:10244000B0EBC74072EB573203FB0CF734BFA2EB83
:10245000C742B2EBC74261EB57310CFB0EF7B0EB52
:10246000C70072EB57720CFB08F734BFA2EBC70230
:10247000B2EBC70261EB577115EB4C254FEA816156
:1024800041EA92114FEA82624FEAD13742EA901252
:1024900006FB07FC44F100044FEA80604FEA1C4C45
:1024A0000CFB0BF7D21B03FB0CF761EB07010CFBDA
:1024B0000EF7B0EB074072EB17420CFB08F734BF86
:1024C000A2EB0742B2EB074261EB174115EB1C157B
:1024D0004FEA813141EA92414FEA823242EA904228
:1024E0004FEA80304FEA0C7644F1000448EA034397
:1024F0004EEA0B484FF0000EB2EB080C71EB0307ED
:1025000024BF624639464EEB0E0E4FF0000B00180A
:10251000524149414BEB0B0BB2EB080C71EB03073B
:102520007BF1000B24BF624639464EEB0E0E4FF096
:10253000000B0018524149414BEB0B0BB2EB080C5E
:1025400071EB03077BF1000B24BF624639464EEB6B
:102550000E0E51EA020718BF46F0010616EB0E7682
:1025600055F1000254F1000103D5BDE88901BDE831
:102570000088BDE88901BDE80048B619524141EB29
:102580000101A3F10103704780807F7E7D7C7B7A0F
:102590007978777676757473727171706F6E6E6D0F
:1025A0006C6C6B6A6A6968686766666564646363B5
:1025B00062616160605F5F5E5E5D5D5C5C5B5B5A3B
:1025C0005A595958585757565655555554545353A8
:1025D00052525251515050504F4F4F4E4E4D4D4D03
:1025E0004C4C4C4B4B4B4A4A4A494949484848474E
:1025F000474747464646454545444444444343438C
:102600004342424242414141002B26D4770021D02F
:102610001CB54FEA370703B44FF010004FF010011C
:102620004FF000000FBCBDE810400BF1010BBBF1F7
:10263000010F08BF5FEA170722BF12F1010211F173
:1026400001014FF0004143F1000300F0004043EA74
:1026500000007047F9D35708DAE746EA064613F157
:10266000400F4FEA16461FDD13F1200FDFBF164360
:102670000A46002120335B42C8D0C3F1200746EA56
:10268000064602FA07F74FEA164646EA0706C3F17E
:10269000200722FA03F201FA07F721FA03F14FF0BB
:1026A000000342EA0702B1E746EA020646EA0646A6
:1026B0004FEA164646EA0106BCBF46EA0646360C15
:1026C0004FF000034FF000024FF000019EE72DE9AC
:1026D000C048934630B491E8380007C831EA400C4E
:1026E00048BF34EA430C03D5FFF7F2FDFFF78CFF38
:1026F000F0BCBDE800882DE9C048934630B491E8AD
:10270000380007C810F0804F08BF13F0804F03D186
:1027100000F005F8FFF778FFF0BCBDE8008820F076
:102720007F4780EA030023F07F4C07EB0C03A3F5FF
:102730007C5300F00040A3F1FE0392F0000F00F084
:10274000B38095F0000F00F077802DE901494FEA42
:1027500011404FEA144621EA004800FB06FC24EA37
:10276000064708FB06F607FB08F800FB07F718EB1F
:1027700006484CEB164C4FEA124B18EB07484FEA51
:1027800015464CEB174022EA0B4E0BFB06FC25EAE4
:1027900006470EFB06F607FB0EFE0BFB07F71EEBCC
:1027A000064E4CEB164C4FF000061EEB074E4CEB62
:1027B000174B18EB0B0840F1000018EB0E0B58EB11
:1027C000000840F100008F1A4FF000013CBFC943E0
:1027D000661B14BFB5EB040C00213CBFC943F61BBC
:1027E0004FEA17444EEA8E0E27EA04454FEA1C478B
:1027F00004FB07622CEA074C05FB07F70CFB05F608
:1028000004FB0CFC16EB074642EB174216EB0C469A
:1028100042EB1C421BEB060658EB0202414146EA22
:102820009E0601D5BDE80189B619524141EB01016F
:10283000A3F10103BDE801894FEA14454FEA1147AE
:1028400024EA054621EA074C05FB07F406FB07F7D7
:102850000CFB06F105FB0CFC11EB074144EB1744A4
:102860004FEA124711EB0C4144EB1C4422EA074C9F
:1028700005FB07F206FB07F70CFB06F605FB0CFC55
:1028800016EB074642EB174216EB0C4642EB1C4593
:102890006A1854F1000148BF7047B619524141EB24
:1028A0000101A3F10103704795F0000F37D04FEA03
:1028B00011424FEA144721EA024624EA074C02FB80
:1028C00007F106FB07F70CFB06F402FB0CFC14EB0C
:1028D000074441EB17414FEA154714EB0C4441EB19
:1028E0001C4125EA074C02FB07F506FB07F70CFB2A
:1028F00006F602FB0CFC16EB074645EB174516EBFC
:102900000C4645EB1C42121951F1000148BF7047BB
:10291000B619524141EB0101A3F1010370474FEA9F
:1029200014454FEA114724EA054621EA074C05FB06
:1029300007F106FB07F70CFB06F24FF0000605FB5C
:102940000CFC12EB074241EB174112EB0C4251EB2E
:102950001C4148BF7047921841EB0101A3F10103EC
:10296000704702F0E7BA2DE9F0410D46014600201C
:1029700004464E1908E00702301B401E80B200F0EA
:1029800007F8641C3844E4B2AC42F4D3BDE8F081EB
:1029900010B5044602F06EFB200AA02101EB4000B6
:1029A000C0B202F037FB02F0A7FBE0B202F032FB4C
:1029B00002F0A2FB02F05EFBA12002F02BFB02F072
:1029C0009BFB002002F0F2FA044602F073FB204663
:1029D00010BD2DE9F04116460D460746002409E0DA
:1029E000E00025FA00F0C1B2381980B200F006F814
:1029F000641CE4B2B442F3D3BDE8F08170B50D4677
:102A0000044602F037FB200AA02101EB4000C0B2CF
:102A100002F000FB02F070FBE0B202F0FBFA02F001
:102A20006BFB284602F0F6FA02F066FB02F042FB6E
:102A3000BDE8704042F210700FF0CEB91CB52A48C4
:102A4000016841F48071016027481438016841F041
:102A50000101016000240120CDE90040234603224A
:102A60002021224801F0E1FC1F482038016841F490
:102A700080710160016821F4807101601C484FF48D
:102A80008031C0F80413D0F8041341F40001C0F8F9
:102A9000041344608460416841604168416081681A
:102AA00021F002018160816821F400618160816808
:102AB0008160C16A21F47001C162C16AC1620169A9
:102AC00021F460310161016941F460310161C16843
:102AD00021F4E011C160C16841F4E011C160816876
:102AE00041F0010181601CBD4438024000000240F9
:102AF000002001402DE9F05F0D46044601E1834EC0
:102B0000D4F844B0D4F84880D6F800A059465046CE
:102B1000D6F80490FEF770F8074641464846FEF79F
:102B20006BF8381A4000606441465046FEF764F87E
:102B3000074659464846FEF75FF838444000A0640F
:102B4000D4F840B0D6F80890D4F84C80594648469E
:102B5000D6F80CA0FEF750F8074641465046FEF75F
:102B60004BF8381A4000206441464846FEF744F8C6
:102B7000074659465046FEF73FF838444000E064A7
:102B8000D4F83CB0D6F810A0D4F85080594650463E
:102B9000D6F81490FEF730F8074641464846FEF74F
:102BA0002BF8381A4000E06341465046FEF724F8FF
:102BB000074659464846FEF71FF83844400020654E
:102BC000D4F838B0D6F81890D4F85480594648460E
:102BD000D6F81CA0FEF710F8074641465046FEF70F
:102BE0000BF8381A4000A06341464846FEF704F847
:102BF000074659465046FDF7FFFF384440006065E0
:102C0000D4F834B0D6F820A0D4F85890594650469D
:102C1000D6F82480FDF7F0FF074649464046FDF709
:102C2000EBFF381A4000606349465046FDF7E4FF69
:102C3000074659464046FDF7DFFF38444000A0658F
:102C4000D4F830B0D6F828A0D4F85C805946504665
:102C5000D6F82C90FDF7D0FF074641464846FDF7D1
:102C6000CBFF381A4000206341465046FDF7C4FFB1
:102C7000074659464846FDF7BFFF38444000E06527
:102C8000D4F82CB0D6F830A0D4F86090594650460D
:102C9000D6F83480FDF7B0FF074649464046FDF7B9
:102CA000ABFF381A4000E06249465046FDF7A4FFEA
:102CB000074659464046FDF79FFF384440002066CE
:102CC000D4F82890D6F83880D4F864A0F66B49463A
:102CD0004046FDF791FF074651463046FDF78CFF11
:102CE000381A4000A06251464046FDF785FF07466E
:102CF00049463046FDF780FF38444000606648345E
:102D00006D1E002D3FF7FBAEBDE8F09F54EF0208AB
:102D100008B1002103E0202070474000491C002832
:102D2000FBDA0846704708B1002103E02020704715
:102D30004000491C0028FBDA0846704770B50E4C6D
:102D40000025C4F898520D48016821F0C0010160C7
:102D5000016841F0400101600948C0F88C5202202E
:102D600004F526740FF038F80120206002200FF0DF
:102D700033F8256070BD000000804342002002400F
:102D8000000044427CB51148016841F080010160B7
:102D9000016841F48071016001240325CDE90054EC
:102DA0000023224640210A4801F03FFBCDE90054B0
:102DB000002301220821074801F037FB0648C0F82C
:102DC0008C420648C0F898427CBD00003038024072
:102DD000001C0240002002400000444200804342A8
:102DE00070B50E4C0026C4F898620D48016821F0B9
:102DF000C0010160016841F04001016009480125FE
:102E0000C0F88C52022004F526740EF0E5FF256010
:102E100002200EF0E1FF266070BD000000804342FA
:102E200000200240000044422DE9F0478246194844
:102E30000024016821F0C0010160016801601E20CA
:102E40000EF0CAFF0025144EDFF850902F464FF0C9
:102E50000108C6F8987202200EF0BEFFC6F89882EC
:102E60006006040ED9F80C0208B1641CE4B202201A
:102E70000EF0B2FF6D1CEDB2082DEAD3BAF1000FCF
:102E800004D0FFF75BFF2046BDE8F087FFF7A8FFFF
:102E9000F9E7000000200240008043420000444265
:102EA0002DE9F04705461548016821F0C001016091
:102EB000016841F040010160114E0027C6F8987288
:102EC000DFF840803C464FF00109E909C8F88C1250
:102ED0006806050E02200EF07FFFC6F898920220C9
:102EE0000EF07AFFC6F8987202200EF075FF641C8F
:102EF000E4B2082CE9D3BDE8F087000000200240CE
:102F0000008043420000444270B50F48016821F040
:102F1000C0010160016841F0400101600B4E0120D9
:102F2000C6F88C020A4DC5F898021E2005F52675D4
:102F300006F523760EF050FF0024346002200EF0D8
:102F40004BFF2C6070BD0000002002400000444296
:102F50000080434270B50F48016821F0C001016054
:102F6000016841F0400101600B4E0020C6F8980254
:102F70000A4DC5F88C021E2005F5237506F5267648
:102F80000EF02AFF0124346002200EF025FF2C6091
:102F900070BD000000200240008043420000444217
:102FA00070B511480024016821F0C001016001687A
:102FB00001600E4D0120C5F88C020D4EC6F8980236
:102FC00007E0641CE4B2FA2C03D9FFF7C3FF012029
:102FD00070BD02200EF000FFD5F80C020028F0D1E1
:102FE000C6F8980270BD0000002002400000444274
:102FF000008043420022134601E08354521C8A425F
:10300000FBDB704700204FF48031084A02E0136870
:103010001B0602D4491EFAD200E029B1034A40F24D
:10302000FF51121D1160704703207047342C01407E
:10303000104A116811F0450FFBD00F4A4B0703D51A
:103040000420106003207047C90702D001201060DF
:103050007047084924390968814201D0102070471F
:1030600040F2FF50106003482038006800F008006C
:1030700070470000342C0140382C014030B5104D11
:1030800000204FF480322C1F0BE0216811F0450F17
:1030900007D00AB14A0707D52968032041F0040187
:1030A0000BE0521EF1D2F5E7C90704D029680120D0
:1030B00041F00101296040F2FF51296030BD00005C
:1030C000382C01400949086810F0450FFBD0410732
:1030D000074805D5016841F00401016003207047ED
:1030E00040F2FF510160002070470000342C014085
:1030F000382C014030B50546194B00201A6812F0F3
:10310000450FFBD0174B540705D5186840F0040055
:103110001860032030BDD20705D0186840F00100C8
:103120001860012030BD0E4A243A1268AA4211D11B
:1031300040F2FF521A600A4A203A126812F4604FB5
:1031400003D0910404D5132030BD120C0A8030BD89
:10315000510401D5102030BD1104FCD50F2030BD25
:10316000342C0140382C014030B50E4D00204FF476
:1031700080322C1F0BE0216811F0450F07D00AB1F7
:103180004A0707D52968032041F0040108E0521ED0
:10319000F1D2F5E7490604D52968002041F0400145
:1031A000296030BD382C014010B506F0F7FE084804
:1031B0000068000108D506480830016841F0006148
:1031C0000160044800688047BDE8104006F0F2BE88
:1031D00000640240BC00002010B506F0DFFE084885
:1031E0000068000508D506480830016841F4006110
:1031F0000160044840688047BDE8104006F0DABE30
:1032000004640240BC0000202DE9FC4FB1F100092C
:10321000DDE90B4532DD002B24DBB6490193B64EC8
:1032200051F8221006EB410EB44951F8326001EB1F
:10323000C201002291F804A0694211F0070104D0F4
:1032400014F8012BC1F12005AA405B1ABAF1000F56
:1032500009D0BAF1010F14D0BAF1030F70D0BAF14E
:10326000020F6DD042E100210A4605E040F821201E
:1032700000EB8103891C5A604945F7DB0020BDE85B
:10328000FC8F9EF800500EF1020C05F00F0A00278B
:10329000102B0EDB14F8015BC1F11806B540154385
:1032A00014F8012BC1F11006B2402A431031103B33
:1032B0003DE0CD18002DD5DD002B05DD14F8016BA8
:1032C000C1F11807BE403243082B05DD14F8013B5D
:1032D000C1F110018B401A4329466E1E4FF0004584
:1032E000354100232A400B270B3120E0CAF120058D
:1032F00022FA05F53CF81560350B491BAA40C6F3C8
:1033000003152DB102F00048520048EA0505491E98
:10331000C6F303262EB102F00048520048EA060622
:10332000491EB94273DBE0E80256A9F10209B9F17E
:10333000000F02DD0B29ABDBD8E7C81BD2E0FFE7AB
:10334000002775460097102B10DB14F8017BC1F1A4
:10335000180C07FA0CF7174314F8012BC1F1100CE5
:1033600002FA0CF23A431031103BB2E0CF18002FB2
:103370004DDD002B0FDD14F801CBC1F118080CFA5C
:1033800008FC4CEA0202082B05DD14F8013BC1F1F0
:1033900010018B401A433946A7F1010C4FF000474A
:1033A00047FA0CF73A400B2700230B31009790E0C7
:1033B0002F7807F00F08C8F1200722FA07F705EB6E
:1033C0004707B7F802C05FEA1C3708D0C91BBA40EC
:1033D000CCF30317CCF303250F2F07D037E0A1EB75
:1033E000080102FA08F205EB4C0572E0BAF1030F8E
:1033F0002ED115B14FF0010C01E04FF0000CB44498
:103400000CF1010B01EB0308D8456FDB0AE06DE01E
:1034100014F801CBC1F118080CFA08FC08314CEA89
:103420000202083B5945F3DB002B09DA1944A1F1EC
:1034300001084FF0004C4CFA08FC00230CEA020291
:10344000C6F1200C22FA0CFC891B6744B2402FB154
:1034500002F0004C52004CEA0707491E0F2D28D1FC
:10346000BAF1030F26D106F1010B01EB0308D84591
:103470003CDB09E014F801CBC1F118080CFA08FC98
:1034800008314CEA0202083B5945F3DB002B09DA0C
:103490001944A1F101084FF0004C4CFA08FC00233C
:1034A0000CEA0202C6F1200C22FA0CFC891B6544CE
:1034B000B2402DB102F0004C52004CEA0505491E05
:1034C000DDF800C0614511DBE0E80275A9F10209F1
:1034D0007546B9F1000F03DD0B29FFF634AF67E73E
:1034E0000098081A01991844081AC8E64FF0FF30EE
:1034F000C5E6000020E40208FCC20208A0E40208BD
:103500002DE9F84F8146DDE90A54002B02DC00204A
:10351000BDE8F88F4548464E50F8220030440090F0
:10352000444850F822E00022604210F0070404D022
:1035300015F8012BC4F1200082401B1B002083469C
:10354000A1F1030A6EE0102B0EDB15F8011BC4F18C
:103550001806B140114315F8012BC4F11006B24012
:103560000A43103B103459E0E1180029D0DD002B4C
:1035700005DD15F8016BC4F11807BE403243082B76
:1035800005DD15F8013BC4F11004A3401A430C46B5
:103590004E1E4FF00041314100230A404FF00A0B0C
:1035A0000A343BE0CEF12001009E22FA01F1715C69
:1035B0000E09A41BB240C1F3C00CBCF1000F05D032
:1035C00002F00046520046EA0C0C641EC1F380076C
:1035D00027B102F0004637435200641EC1F3400693
:1035E0002EB102F00048520048EA0606641E11F0AF
:1035F000010105D002F00048520048EA0101641EB2
:103600005C4585DBC9F800C009F1040C001D4CF8CD
:10361000047B4CF8046B4CF8041BE146504501DA7E
:103620000A2CBFDA50458EDB72E70000F0E5020895
:10363000A0E50208F8E502082DE9FF4F87B08246B1
:10364000894600200490504903F0030001EB8018E4
:10365000103951F8200005901F20B0EBA30F01DDB9
:103660009E1000E01F26F01C1F2800DA00E01F203B
:10367000002800DC002000210091D8F8041001414E
:103680000191D8F8081001410291D8F80C100141BD
:1036900003915AF804BB2BF00040042802DA5DF8CD
:1036A00020005FE0102807DA58F82000002E01DA29
:1036B000714254E0304155E0402809DA334901EBCA
:1036C0008000059950F8400CFDF796FAF11E3BE09A
:1036D00044040025B4F1006F01DA24010425B4F19B
:1036E000005F01DAA400AD1CB4F1804F01DA640080
:1036F0006D1C2748844202DA244FC03701E0234F73
:10370000D43721463868FDF777FA796808442146AE
:10371000FDF772FAB96808442146FDF76DFAF968B9
:1037200008442146FDF768FA39690844194951F8F7
:103730002510FDF761FAC0000599FDF75DFA1549FE
:10374000203951F82510711A00290ADA49426FF020
:10375000004323FA01F2824201DA184602E088406F
:1037600000E00841049901430491BBF1000F00DA25
:10377000404249F8040B0998401E099089D10498E9
:103780000BB0BDE8F08F0000D4C00208D4C102081D
:103790009A79825ADCC20208FEB53148016841F0CC
:1037A00080010160016841F48071016000250124FD
:1037B000CDE900542B462A4680212A4800F035FEE8
:1037C0000320CDE90004012200231102264800F065
:1037D0002CFEFFF7D7FA254EC6F8A052142006F5A6
:1037E00028760EF0D7FA346032200EF0D3FA8DF836
:1037F0000850012202A9002000F006F9012202A9C6
:10380000A42000F001F916208DF80800012202A979
:10381000802000F0F9F80C208DF80800012202A9A0
:10382000882000F0F1F8022202A9A12000F026F879
:103830009DF80800302803D19DF80910032907D00E
:103840009DF80910012903D0022901D00120FEBDF5
:10385000C9B201EB002106A0FDF79CFC0020FEBDD3
:1038600030380240001C0240002002400000444268
:103870004354502049443A25780D0A002DE9F0417F
:1038800015460F460446FFF73FFB7020FFF708FB85
:10389000FFF786FBE0B2FFF703FBFFF781FBFFF7C3
:1038A00033FB7120FFF7FCFAFFF77AFB00246E1E52
:1038B00009E0B44201D0012000E00020FFF7B4FA93
:1038C0003855641CE4B2AC42F3D3BDE8F041FFF7D5
:1038D00041BB00002DE9F143474F00244FF00A0996
:1038E000387882B0401CC0B2B0FBF9F209FB12017B
:1038F000424DA046387009B10A2863D2012202A9BC
:103900000220FFF7BBFF9DF8080001075AD000F026
:103910000F00062856D2FF218140C8B2C04340F0B4
:10392000C000A8864FF001080026A98E08FA04F00E
:1039300001423AD032480422694630F81400FFF7B9
:103940009DFF95F844009DF80010C0079DF8010008
:1039500001F00F010ED000EB012105EB44000184C2
:103960009DF802209DF8031002F00F0201EB0221E6
:10397000818110E000EB012022490988091A05EB3A
:10398000440081819DF802209DF8031002F00F028F
:1039900001EB022101849DF800000821B1EB101F0A
:1039A00003D005EB440006848681641CE4B2052C38
:1039B000BBD3A9894FF0010819B9288C08B98DF833
:1039C00008603E709DF80800C0060CD1A88E010664
:1039D00002D520F0800005E04FF6FF71A98129840F
:1039E00000F0E000A8863878F02801D987F8009028
:1039F0004046BDE8FE830000CC000020D40000203B
:103A000002470208D81A00202DE9F04115460E465B
:103A100004460027FFF778FA7020FFF741FAFFF716
:103A2000BFFAE0B2FFF73CFAFFF7BAFA002408E069
:103A3000305DFFF735FAFFF7B3FA070003D1641CD6
:103A4000E4B2AC42F4D3FFF785FA3846BDE8F08122
:103A500038B50446094D4FF0AA300090A8790423E8
:103A600060436A46002106F00DFAA87904236043FA
:103A70006A460021401C06F005FA38BD801D002072
:103A80002DE9FC47254F89460646002500240DF107
:103A9000040810E0CDF80080798870438B084A460E
:103AA000002106F071F87888BDF80410B1EB900F92
:103AB00004D1641CA4B2B879A042EBD8B879A04272
:103AC00002D10020BDE8FC87304605F011FE20B190
:103AD000294613A0FDF75EFB16E0B9F1FF3F13D0B6
:103AE00000200AE07A8806FB0010930800221146A5
:103AF00006F0A0F9BDF80400401CADF80400B87948
:103B0000BDF804108842EDD86D1CADB2032DBDD3B5
:103B1000314609A0FDF73EFB0120D3E7801D0020C0
:103B20006572726F7220657261736520626C6F637B
:103B30006B3A25640D0A000062616420626C6F6359
:103B40006B20636865636B65643A25640D0A000049
:103B500038B50446104D00208DF80000A8790123E7
:103B600060436A46002106F043F89DF80000FF28F4
:103B700001D0022038BDA879012360436A460021A4
:103B8000401C06F035F89DF80000FF2801D0012008
:103B900038BD002038BD0000801D00202DE9F84F01
:103BA00091462F4A8A461D469179B0FBF1F3B0FB4E
:103BB000F1F801FB130B404600F0B8F8284907461E
:103BC0004889B84202D20120BDE8F88F002428E0DD
:103BD0005C4516D3ADB14A88A2EB0A01A94201D2D5
:103BE0008EB200E0AEB207FB004108FB00404B463E
:103BF0005246009605F004FC4FF0000AB144AD1B9C
:103C000005E007FB004108FB004005F0CBFC30B1AC
:103C10003846FFF71DFF012000F024F8CBE7641CB5
:103C2000A4B20F498879A042D2D80D46A879A04203
:103C300014D1384600F028FA404605F059FD00201E
:103C40006A89696908E031F81040444502D121F8D9
:103C5000107003E0401C80B28242F4D80020B3E729
:103C6000801D0020F8B506460021294D4FF6FF7053
:103C700003E06A6922F81100491C6A898A42F8D86F
:103C80000020A88104461CE0A879042360436A460A
:103C9000002105F0ADFF9DF80000FF280CD1B6B162
:103CA000A879012360436A460021401C05F0A0FF6B
:103CB0009DF80000FF280AD0214616A0FDF76AFAF9
:103CC000641C6989A142DFD800206A6916E09DF86A
:103CD00002009DF8031000EB01206989814202D99E
:103CE000696921F81040A889401CA881E8E732F8EA
:103CF00010308B4201D3E88102E0401C8142F6D8AB
:103D0000E889642801D20220F8BD0020F8BD000037
:103D1000801D002062616420626C6F636B20696E9D
:103D20006465783A25640D0A0000000070B5104EF5
:103D3000104C71892268491E914200D2216000F026
:103D400001052946206800F017F8411C0AD1708946
:103D50002168401E884207D92946206000F00CF8EF
:103D6000411C01D0206070BD4FF0FF3070BD0000DD
:103D7000801D002034000020F8B50D460021401CB5
:103D80000091040012D00C4F012626EA0400A8423C
:103D90000AD1B879611E484304236A46002105F020
:103DA00027FF0098401C04D0641EEED14FF0FF3076
:103DB000F8BD601EF8BD0000801D0020F8B5254E3E
:103DC00000273C46B78113E02046FFF7C1FE70B9DB
:103DD000204605F08DFC38B121461FA0FDF7DAF929
:103DE0002046FFF735FE02E0B089401CB081641C1C
:103DF0007089A042E8D8B1891BA0FDF7CBF9B08942
:103E0000642801D20120F8BDC0EB4010642100EB12
:103E10004000B0FBF1F50024009710E02046FFF7CA
:103E200097FE58B9B079022360436A46194606F0F6
:103E300029F80098401C0090A84203D0641C7089A7
:103E4000A042EBD80120FFF70DFF0028DBD00220B5
:103E5000F8BD0000801D002042616420626C6F6329
:103E60006B3A25640D0A0000676F6F645F626C6FC8
:103E7000636B6E756D3A25640D0A000010B505F090
:103E800061FC00BB184C616911B1002015F0A8FF5E
:103E900060894100002015F0BBFF60616189490025
:103EA000FDF793FC606970B10120FFF7DBFE60B1A4
:103EB0000EA0FDF76FF9FFF781FF90B111A0FDF79C
:103EC00069F9022010BD012010BD618912A0FDF723
:103ED00061F9A18916A0FDF75DF9E18919A0FDF747
:103EE00059F9002010BD0000801D0020666F726D22
:103EF0006174206E616E6420666C6173682E2E2E74
:103F00000D0A0000666F726D6174206661696C65F0
:103F100064210D0A00000000746F74616C20626CF3
:103F20006F636B206E756D3A25640D0A000000000A
:103F3000676F6F6420626C6F636B206E756D3A25DE
:103F4000640D0A0076616C696420626C6F636B209B
:103F50006E756D3A25640D0A000000000549CA8996
:103F6000824202D24FF6FF707047496931F8100063
:103F700070470000801D00202DE9FF5F9B4615461D
:103F80008246002679E03F4C6088B0FBF5F1A079CD
:103F9000414301988319B3FBF1F0FFF7DFFF61891B
:103FA000814203D8012004B0BDE8F09F354C618800
:103FB000A479B1FBF5F26243B3FBF2F702FB1732CF
:103FC0006A43B2FBF1F300FB0437B2FBF1F001FBF3
:103FD0001028A1EB0800B0FBF5F084B2ABEB0600B3
:103FE000A04200D284B204FB05F91FFA89F31FFA3C
:103FF00088F15246384605F0A9FC032809D11FFA7A
:1040000089F31FFA88F15246384605F09FFC0328D1
:1040100004D004282ED068B30220C4E74B461FFA10
:1040200088F152463846FFF7B9FDDFF858804FF067
:10403000FF3198F80600B7FBF0F0FFF721FD80B9DB
:1040400098F806000021B7FBF0F0FFF719FD814654
:1040500098F80600B7FBF0F005F04AFBB9F1000F45
:1040600008D098F80600B7FBF0F0FFF7F1FC01204C
:10407000FFF7F8FD05FB04AA26445E4583D3002024
:1040800091E70000801D002008B5CC218DF80010BC
:10409000044901236A4689794843194605F0F2FE2E
:1040A00008BD0000801D00202DE9FF4F85B015469A
:1040B00000274FF0FF3B7BE0404C6088A179B0FBCC
:1040C000F5F048430699CB19B3FBF0F0FFF746FF34
:1040D00061898046414503D8012009B0BDE8F08FD1
:1040E000364A50889279B0FBF5F15143B3FBF1F4B5
:1040F00001FB143101FB05FABAFBF0F308FB0231B6
:10410000BAFBF0F200FB12A9A0EB090080B2B0FBF1
:10411000F5F002910899ADF80400C91B8CB2039127
:10412000844200D3044601A804FB05F600901FFA60
:1041300089F1C6F38F034FF0FF32029805F024FD9A
:1041400008B10220C9E7BDF80400B0EB960F0FD10B
:10415000B3B21FFA89F1059A029805F0C3FD38B988
:104160004146C34520D00846FFF78EFFC346D8B16D
:104170001248817940884143A1EB0A00B0FBF5F079
:10418000039980B28CB2ADF80400844200D3044697
:1041900004FB05F61FFA89F13346059A0298FFF7EA
:1041A000FDFC08B1032098E70598274430440590AA
:1041B0000898874280D300208FE70000801D0020F0
:1041C000FCB500240D46064600940822012110206B
:1041D000019407F0E1FA1020FEF72AFF002834D1FD
:1041E00032040121372007F0D7FA3720FEF720FFED
:1041F00000282AD1012303220821401E07F0DEFAFD
:1042000000220121332007F0C7FA3320FEF710FF08
:10421000214A002819D1204B69464C3340F22A66C6
:104220001768374208D11768BF02F9D51F6841F8EF
:104230002470641C022CF3D311680B07174905D5B1
:10424000086840F0080008600420FCBD13689B0764
:1042500005D5086840F0020008600220FCBD136824
:104260009B0605D5086840F0200008600620FCBDCC
:104270001268920505D5086840F4007008600720B0
:10428000FCBD40F2FF520A60009909BA69600199C9
:1042900009BA2960FCBD0000342C0140382C0140D3
:1042A0002DE9F0471E000D4604463BD0D107C6F16C
:1042B0001F074FF001004FF0000900FA07F0A0F1CE
:1042C0000108CA4672D02068C11740FA07F28A4234
:1042D00001D088EA0100B0402060FCF790FC40EA81
:1042E000090954F8800F4042C11740FA07F28A4288
:1042F00001D088EA0100B0402060FCF780FC40EA71
:1043000009092868C11740FA07F280348A4201D0AF
:1043100088EA0100B04001C50AF1020ABAF1120FA1
:10432000D1DB70E0D0073DD04FF42070D4F880C1CD
:1043300007594FF46070D4F8808006594FF49060AC
:10434000CCF1000C05594FF4B060C8F100080359D6
:104350004FF4D0607F4202594FF4F0607642015929
:104360004FF408606D4250F804904FF42070C4F888
:1043700080C1C4F8808007514FF460705B420651E1
:104380004FF49060524205514FF4B06049420351DE
:104390004FF4D06002514FF4F0600151C9F10000B8
:1043A000C4F880080020BDE8F087FFE72068C11747
:1043B00040FA07F28A4201D088EA0100B04020604A
:1043C000FCF71DFC40EA090954F8800FC11740FAB8
:1043D00007F28A4201D088EA0100B0402060FCF771
:1043E0000EFC40EA09092868C11740FA07F2803438
:1043F0008A4201D088EA0100B04001C50AF1020AF0
:10440000BAF1120FD2DB4846CDE7CB0810B500EB6E
:104410008300036A4907C90E0F248C40A34303623B
:10442000036A8A401343036210BD2DE9F04F994699
:10443000DDE909AC00234FF0010B4FF0030E0BFA3E
:1044400003F501EA0504AC422AD107685C000EFAC4
:1044500004F6B7430760076802FA04F847EA08075A
:104460000760012A01D0022A12D18768B74387600A
:10447000D0F808800AFA04F748EA0708C0F808806C
:104480004768AF434760476809FA03F52F43476021
:10449000C568B543C560C5680CFA04F42543C5601A
:1044A0005B1C102BCBD3BDE8F08F00002DE9FF4142
:1044B0003A48016841F080010160016841F480716F
:1044C00001600024364F01252346224680213846CC
:1044D000CDE90045FFF7A9FF0320CDE90005012242
:1044E000002311022F48FFF7A0FFFEF74BFC2E4ED2
:1044F000C6F8A0420A2006F528760DF04BFC356080
:104500000A200DF047FC002300941A46802138460B
:104510000194FFF78AFF64200DF03CFC042202A9FD
:1045200048F2401000F058F88DF80C4002A91FA086
:10453000FCF730FE20A102A8FDF7BCF918B101205C
:1045400004B0BDE8F08102208DF8080048F2400573
:10455000012202A9284600F079F9012202A9E81DEA
:1045600000F03AF89DF8081060290BD214A0FCF76F
:1045700011FE18488088A0F5AA41103902D1012007
:1045800000F03EF90A200DF005FC8DF808400122EC
:1045900002A9284600F05AF90020D1E7303802403D
:1045A000001C0240002002400000444243545020BE
:1045B00049443A25730D0A003931343700000000B0
:1045C00044656661756C74205665723A25640D0AFF
:1045D00000000000D81A00202DE9F04115460F46D2
:1045E0000446FEF791FC2820FEF75AFCFEF7D8FCA3
:1045F000200AFEF755FCFEF7D3FCE0B2FEF750FCB4
:10460000FEF7CEFCFEF780FC2920FEF749FCFEF702
:10461000C7FC00246E1E09E0B44201D0012000E076
:104620000020FEF701FC3855641CE4B2AC42F3D321
:10463000BDE8F041FEF78EBC2DE9F14F6C4E002431
:104640004FF00A0B307882B0401CC0B2B0FBFBF2D6
:104650000BFB1201674DA146307009B10A2872D2D6
:1046600048F24E17012202A93846FFF7B5FF9DF820
:1046700008004FF0000801060AD500F00F000628D8
:1046800006D28DF80480012201A9384600F0DEF838
:104690009DF80800010756D000F00F00062852D2FE
:1046A000FF218140C8B28DF80400C04395F834A0C2
:1046B00040F0C000A886A889A882288C4E4F288583
:1046C0004FF00109A98E09FA04F001424ED04B487F
:1046D0000422694630F81400FFF77EFFB888A0F581
:1046E000AA41103904D0A0F58641423916D03DE0E8
:1046F00095F84400C00715D09DF800009DF8011002
:1047000000EB012105EB440001849DF802109DF8A7
:10471000032001EB0221C1F5487126E095F8440021
:10472000C00711D09DF800009DF8011000EB012199
:1047300005EB440081819DF802109DF8032001EBF8
:104740000221018412E02CE09DF800009DF8011088
:1047500000EB012105EB440001849DF802109DF857
:10476000032001EB0221C1F588718181641CE4B250
:10477000052CA7D3A9893A884FF001092846914210
:1047800003D8018C7A88914209D99DF8081001F06C
:104790000F0101290CD9C1898181418C298486F8B6
:1047A00000809DF8080000F08F0080280AD016E0F5
:1047B000818A8181018D018480218DF80810A5F8FE
:1047C00034A0EEE7A88E010602D520F0800005E0B7
:1047D0004FF6FF71A981298400F0E000A8863078A7
:1047E000F02801D986F800B04846BDE8FE8F0000E9
:1047F000CD000020D4000020D81A0020C4470208B1
:1048000008B500218DF800108DF801000E489DF8C4
:104810000020435C491C1A44C9B28DF80020B82915
:10482000F5D3D0B2C043401C8DF80000B822064931
:1048300048F2470000F00AF80222694648F2FF00F9
:1048400000F004F8002008BD0C4702082DE9F041F3
:1048500015460E4604460027FEF756FB2820FEF7B5
:104860001FFBFEF79DFB200AFEF71AFBFEF798FBE5
:10487000E0B2FEF715FBFEF793FB002408E0305D85
:10488000FEF70EFBFEF78CFB070003D1641CE4B2BD
:10489000AC42F4D3FEF75EFB3846BDE8F081000081
:1048A0002DE9FF413748016841F08001016001684E
:1048B00041F4807101600024334F012523462246D4
:1048C00080213846CDE90045FFF7AFFD0320CDE953
:1048D00000050122002311022C48FFF7A6FDFEF778
:1048E00051FA2B4EC6F8A0420A2006F528760DF0A4
:1048F00051FA35600A200DF04DFA002300941A4653
:10490000802138460194FFF790FD64200DF042FAB3
:10491000042202A948F2401000F052F88DF80C4031
:1049200002A91CA0FCF736FC1EA102A8FCF7C2FFDE
:1049300018B1012004B0BDE8F08102208DF8080014
:1049400048F24005012202A92846FFF77FFF012215
:1049500002A9E81DFFF740FE9DF80810412905D285
:1049600012A0FCF717FC012000F032F90A200DF02C
:1049700011FA8DF80840012202A92846FFF766FFC8
:104980000020D7E730380240001C024000200240DF
:10499000000044424354502049443A25730D0A0D07
:1049A0000A000000393237310000000044656661BA
:1049B000756C74205665723A25640D0A000000007B
:1049C0002DE9F04115460F460446FEF79DFA2820D2
:1049D000FEF766FAFEF7E4FA200AFEF761FAFEF740
:1049E000DFFAE0B2FEF75CFAFEF7DAFAFEF78CFACD
:1049F0002920FEF755FAFEF7D3FA00246E1E09E0CF
:104A0000B44201D0012000E00020FEF70DFA385535
:104A1000641CE4B2AC42F3D3BDE8F041FEF79ABAAD
:104A20002DE9F14783B000268DF80060644C4FF00B
:104A30000A0A644D20783746401CC0B2B0FBFAF237
:104A40000AFB120120704FF6FF7909B10A287DD2C6
:104A500048F24E18012203A94046FFF7B1FF9DF826
:104A60000C0001060AD500F00F000B2806D28DF8C5
:104A7000006001226946404600F0D0F89DF80C0025
:104A8000010775D000F00F000B2871D209FA00F170
:104A9000C843B5F8348040F0C000A886A889E883F0
:104AA000288C68868DF8006047E0A88E9DF800206D
:104AB0000121914008423BD043499DF80000062265
:104AC00031F8100001A9FFF77BFF95F84400C007FB
:104AD00016D09DF806109DF8070001EB00209DF808
:104AE000001005EB410108849DF804009DF80510B5
:104AF00000EB01209DF8001005EB4101888117E0D3
:104B00009DF806009DF8071000EB01209DF80010AD
:104B1000C0F5487005EB410188819DF804009DF8BF
:104B2000051000EB01209DF8001005EB4101088401
:104B30009DF80000401C8DF800009DF800000A2838
:104B4000B3D322480127A989028800E010E09142EE
:104B500003D8298C4088814209D99DF80C0000F0C7
:104B60000F0001280BD9E889A881688C2884267059
:104B70009DF80C0000F08F0080280AD016E0E88B2A
:104B8000A881688E288480208DF80C00A5F83480D8
:104B9000EEE7A88E010602D520F0800005E0A5F81A
:104BA0000C90A5F8209000F46040A8862078F028AA
:104BB00001D984F800A004B03846BDE8F0870000B1
:104BC000CE000020D400002088480208D81A002017
:104BD00008B500218DF800108DF801000E489DF8F1
:104BE0000020435C491C1A44C9B28DF80020B82942
:104BF000F5D3D0B2C043401C8DF80000BA2206495C
:104C000048F2470000F00AF80222694648F2FF0025
:104C100000F004F8002008BDCE4702082DE9F0415D
:104C200015460E4604460027FEF76EF92820FEF7CB
:104C300037F9FEF7B5F9200AFEF732F9FEF7B0F9B9
:104C4000E0B2FEF72DF9FEF7ABF9002408E0305D85
:104C5000FEF726F9FEF7A4F9070003D1641CE4B2BD
:104C6000AC42F4D3FEF776F93846BDE8F081000097
:104C700030B40C4601461546500700D0012000EB29
:104C8000D50010FB05F0C2B208784B78812809D313
:104C9000402B07D3FF2B05D0FF2803D07F2B0CD24E
:104CA000403B0BE00023184603E05B1C04F8010BBB
:104CB000DBB29342F9D330BC7047413B8138D9B263
:104CC000C0B2C0EB401303EB801001EB4000504337
:104CD0000C490C2D0CD0102D0DD0182D0ED0202DE0
:104CE000E9D1D1F821100144204630BC08F0E8BFDA
:104CF000D1F80910F7E7D1F81110F4E7D1F819103D
:104D0000F1E70000AC9E022010B5194800240168AC
:104D100018A0FCF73FFA1648001D016818A0FCF720
:104D200039FA13480830016818A0FCF733FA104824
:104D30001430016818A0FCF72DFA1A4AD2F8800244
:104D400090B10020C2F880021749641CD2F8840296
:104D5000E4B258B10020C2F884020020401C88420E
:104D6000FCD3052CF1D310BD0120EBE70120F2E7C5
:104D700028ED00E0434653523A2538580D0A00000A
:104D8000484653523A2538580D0A000044465352BB
:104D90003A2538580D0A0000414653523A253858F2
:104DA0000D0A000000804042FFFF1F002DE9F04F78
:104DB00097B0002798469346894606463C46209D74
:104DC0001AE0D8E9053018B16869A04200DD002377
:104DD000D5E90301A14200DD0020A9690090CDE9D9
:104DE00001410BEB84024946304600F08BFA074341
:104DF000641C09F1240948362868A042E1DC12E06D
:104E0000D5E90330A04200DD0023A8690BEB840242
:104E1000CDE900404946304600F098F90743641C4C
:104E200009F1240948366868A042E9DC009441E0B1
:104E3000D5E90320A04200DD002203A9484609F07D
:104E4000BDF9E00715904FF0000A04F00100564646
:104E5000029003A80BEB062150F836000191800068
:104E60004AEA000A41F82400FBF7C9FE40EA0708B5
:104E700003A800EBC60015994068800080EAE17144
:104E80000298084401994AEA000A01EB8401C1F83A
:104E90008000FBF7B4FE002149F82610761C40EA9A
:104EA0000807092ED5DB09F12409BAF1000F00D05B
:104EB0000094641CA868A042BADC0021202C09DA06
:104EC00000200BEBC012401C42F824101228F8DB23
:104ED000641CF3E70FB1002003E0202003E07F0013
:104EE000401C002FFBDA401EE861009817B0BDE8B7
:104EF000F08F000070B50D4C0025C4F890520C489E
:104F0000016821F440610160016841F48061016041
:104F1000C4F89452022004F524740CF05DFF0120C3
:104F2000206002200CF058FF256070BD00804342D5
:104F3000001C02401CB50A48016841F08001016074
:104F400001240220CDE90004002322463021054837
:104F5000FFF76BFA0448C0F89042C0F894421CBDB9
:104F600030380240001C02400080434270B50D4CB6
:104F70000026C4F890620C48016821F44061016089
:104F8000016841F4806101600125C4F89452022057
:104F900004F524740CF020FF256002200CF01CFFA7
:104FA000266070BD00804342001C02402DE9F0479E
:104FB000814616480024016821F4406101600168BF
:104FC0000160134E254627464FF00108C6F890723F
:104FD00002200CF001FFC6F890826006040ED6F89D
:104FE000140208B1641CE4B201200CF0F5FE6D1C43
:104FF000EDB2082DEAD3B9F1000F04D0FFF77AFF24
:105000002046BDE8F087FFF7B1FFF9E7001C02403A
:10501000008043422DE9F04105461448016821F41F
:1050200040610160016841F480610160104E002719
:10503000C6F890723C464FF00108E809C6F89402A1
:105040006806050E02200CF0C7FEC6F8908202200A
:105050000CF0C2FEC6F8907202200CF0BDFE641C7B
:10506000E4B2082CE9D3BDE8F0810000001C024046
:105070000080434270B50D48016821F44061016031
:10508000016841F480610160094C0120C4F8940278
:10509000C4F89002042004F524740CF09DFE002551
:1050A000656004200CF098FE256070BD001C024075
:1050B000008043420E4810B5016821F44061016050
:1050C000016841F4806101600A4C0020C4F890023C
:1050D000C4F89402042004F524740CF07DFE012031
:1050E00020606060BDE8104004200CF075BE000038
:1050F000001C02400080434270B512480024016841
:1051000021F440610160016801600F4D0126C5F87E
:10511000946230460CF060FEC5F8906201200CF0FD
:105120005BFE07E0641CE4B2FA2C03D9FFF7C2FF70
:10513000012070BDD5F814020028F3D1C5F8900203
:1051400070BD0000001C0240008043422DE9FF4F6B
:10515000A7B0044635981E460D464FF0000A0728B2
:1051600016DAC0F1070A002054F8201041FA0AF1BB
:1051700044F8201004EB80014A6842FA0AF24A60BF
:10518000296841FA0AF102C5801C1228ECDB243D93
:105190006946204612F00CFF201D06A912F008FFF8
:1051A00004F108000CA912F003FF324612A92846A8
:1051B00009F004F8524800273C4624900DF1480BB2
:1051C0005BF824004FEA80094846FBF718FD40EAE7
:1051D0000708299800EBC416C6F800900BEB840969
:1051E000D9F80C0080008346FBF709FD40EA080768
:1051F000684600EB8400C6F880B12590C168249809
:1052000050F82400FBF7F8FC0146D9F8180001EB30
:1052100080008346FBF7F3FC40EA0708C6F800B3BA
:105220002498C4F1050100EB840B5DF82110DBF834
:105230000C00FBF7E1FC0146D9F8240001EB8000EB
:105240000746FBF7DCFCC4F10201C6F8807440EAB3
:1052500008085DF82110DBF81800FBF7CDFC0746C5
:105260002598416A249850F82400FBF7C5FC3918AA
:10527000D9F8300001EB80073846FBF7C0FC40EA64
:1052800008002590C6F800765DF82410DBF82400AD
:10529000FBF7B2FCC4F10B0107465DF82110DBF807
:1052A0000C00FBF7A9FC3918D9F83C0001EB800091
:1052B0008046FBF7A4FC07462598641C0743C6F804
:1052C0008087032CFFF67AAF0620694651F820202C
:1052D000401C921004C50928F8DB0C2051F820204E
:1052E000401C921004C51228F8DBA5F12401534696
:1052F000349A2998FEF7D4FF2BB03843BDE8F08FDD
:10530000ECEC02082DE9F04FA7B00C46924601469E
:10531000002232989B46443113466D4607281CDA1A
:10532000C0F1070908200E6846FA09F6F31A0E1FA5
:105330009A1A3668A1F1080146FA09F6F31A05EB44
:105340008006726245F8203054F8206046FA09F66B
:1053500044F82060401EE6D511E04FF00009082017
:105360000E68F31A0E1F9A1A3668A1F10801F31A93
:1053700005EB8006726245F82030401EF0D5099892
:1053800040100990009840100090284612F064FDEB
:1053900009A812F061FD3098504F4FF0000808AD99
:1053A00050EA0B0058D012A92046309A08F006FFA8
:1053B0004B490BEBCB0001EB001000262690696AED
:1053C00057F8040955F804B9FBF716FC4FEAAB018E
:1053D0000A1A084401C42698934650F8261010462D
:1053E000FBF70AFC014612A850F82600084480008A
:1053F00024902699C6F11100259051F820105846A6
:10540000FBF7FAFB0146259812AA52F8200008443F
:105410004FEA800B0AEBC6112498086025980AEB26
:10542000C010C0F800B02498FBF7E9FB40EA080878
:105430005846FBF7E4FB761C40EA0808092EBEDB61
:10544000A4F124014B465046319AFEF729FF27B0BC
:1054500040EA0800BDE8F08FDFF880B000260BF1CD
:10546000040B696A57F8040955F804292492FBF7DC
:10547000C3FB249A236891105A422692421A084488
:10548000249201C49818404225905BF8041BFBF756
:10549000B3FB249A02EB800024905BF8041B259850
:1054A000FBF7AAFB269A0AEBC61102EB80002590B7
:1054B00024980860C6F111020AEBC2112598086011
:1054C0002498FBF79CFB40EA08082598FBF797FB1C
:1054D000761C40EA0808092EC3DBB1E720E6020883
:1054E000CCEB02081CB504460020009001901A483D
:1054F0000121008902040D2006F04EF917490868C1
:105500000190024601E00A68019212F0450FFAD0BC
:105510001348D10705D0016841F001010160012065
:105520001CBD510705D5016841F00401016003204D
:105530001CBD0A49243909680D2901D010201CBD61
:1055400040F2FF5101600548203800680090C0F328
:105550004320207000201CBD24000020342C01407A
:10556000382C01407CB51448016841F0010101600C
:10557000016841F004010160016841F080010160AF
:1055800000240220CDE900402346224601210B4899
:10559000FEF74BFF012500231A4669030848CDE9B1
:1055A0000045FEF742FF00231A460C210548CDE9CD
:1055B0000045FEF73AFF7CBD303802400000024053
:1055C00000080240001C02402DE9F041224C234E0D
:1055D000234F244D012108B1217001E0207860B1F2
:1055E000D5F80C0270B1D5F8080258B1D6F83402DB
:1055F00040B1D7F80002012804D0D5F80C020128E8
:105600001CD027E00A200CF0C5FB00202070D5F844
:105610000C0250B1D5F8080250B1D6F8340248B1A6
:10562000D7F80002012807D014E00120BDE8F0817E
:105630000220FBE70320F9E70420F7E7D5F808028A
:10564000012807D1D6F83402012803D1D7F8000287
:1056500000B921700020E9E720000020000041424D
:10566000000040420080434270B50E490E4A064693
:1056700008881268002422B13046BDE8704003F06B
:105680008BB84D8800214543084602F0F3FD03F036
:1056900055F8B1B2054801E00180641CAC42FBD36F
:1056A00070BD0000D81A0020E81A00200000086031
:1056B0002DE9F84F814617480A9F0E46006828B129
:1056C0004846009703F0B4F8BDE8F88FA2EB090054
:1056D000401C85B2981B401C1FFA80F80024DFF89C
:1056E00038A014E0301981B2484602F0C3FD03F03F
:1056F00025F80020514606E004FB050237F8122089
:105700000A80401C80B2A842F6D3641CA4B244456F
:10571000E8D3D9E7E81A0020000008602DE9F05F1F
:10572000394C3A4DA071296839B103F0D9F8E88AAB
:105730002080288B6080BDE8F09F33492C232A25E8
:1057400089884FF0F00949F2413A2B2645F2105B67
:105750004FF4305E4FF448774FF4A07845F2103C98
:105760004FF4F07258B1A4F80080A4F802905145AB
:1057700001D0614529D123816581A68139E0A4F852
:105780000090A4F80280514501D0614508D12381E1
:105790006581A681614531D1A4F8008062802DE049
:1057A000594508D1A4F808E04FF4285060814FF41F
:1057B0002C50A08106E0A1F5C85063381ED123818A
:1057C0006681A5812280678018E0594508D1A4F838
:1057D00008E04FF4285060814FF42C50A08106E07F
:1057E000A1F5C850633804D123816581A681278043
:1057F0006280614502D12280A4F80280BDE8F05F9A
:10580000002002F05BBC0000D81A0020E81A00203B
:105810002DE9FE4F0026A2EB000882465F1A701E9B
:1058200035468946B8F1000F02DD4FF0010102E074
:1058300003D14FF00001019102E0C8F1000801908E
:10584000002F02DD4FF0010002E003D14FF0000015
:10585000009002E0C7F1000700904046B84501DD26
:10586000044600E03C46601C4FF0000B029015E03F
:105870001FFA89F11FFA8AF000F016F846443D44F9
:10588000A64202DD0199361B8A44A54202DD009939
:105890002D1B89440BF101001FFA80FB02998B45F7
:1058A000E6DDBDE8FE8F000010B5084A084C12681E
:1058B00022B12268BDE8104003F026B802F0DAFCFD
:1058C00002F03CFF03492088088010BDE81A002040
:1058D0000C000020000008602DE9FC5F80460024D9
:1058E000154603200F46A0EB450649E0781B81B220
:1058F00008EB040A01901FFA8AF0FFF7D5FF381B66
:1059000081B208EB050900901FFA89F0FFF7CCFF80
:1059100007EB040B1FFA8BF11FFA89F0FFF7C4FFA6
:1059200007EB05091FFA89F11FFA8AF0FFF7BCFFA0
:10593000A8EB040A1FFA89F11FFA8AF0FFF7B4FFF7
:10594000A8EB05091FFA8BF11FFA89F0FFF7ACFFEE
:10595000019881B21FFA8AF0FFF7A6FF009881B282
:105960001FFA89F0FFF7A0FF641C002E03DA06EB94
:105970008406B61D04E0601B06EB80066D1E0A3629
:10598000AC42B3DDBDE8FC9F2DE9F04104463A4846
:105990000D46006820B12046BDE8F04102F0B4BFDA
:1059A000364E270A3146B0884989A0F513434FEA9D
:1059B0001528413B0CD0A0F5A643103B08D0A0F51C
:1059C000AA43103B11D0A0F5C853633B27D04BE04E
:1059D000084602F0A7FE384602F098FEE0B202F058
:1059E00095FEB08902F09EFE38E0084602F09AFE6D
:1059F000384602F08BFE7089401C80B202F092FEA5
:105A0000E0B202F083FEB08902F08CFE404602F064
:105A10007DFEB089401C80B202F084FE21E0B079A6
:105A200018B93088001B401E84B2084602F07AFE86
:105A3000270A384602F06AFEE0B202F067FE3846F6
:105A400002F064FEE0B202F061FEB08902F06AFE8C
:105A5000404602F05BFEE8B202F058FE404602F01B
:105A600055FEE8B202F052FE054930890880881CD4
:105A70000280BDE8F0810000E81A0020D81A00205A
:105A8000FEFF07602DE9F8431F46144B8046089837
:105A90001B6833B100903B46404602F053FFBDE81F
:105AA000F883A2EB0802521C96B20C4685B2DFF8CE
:105AB00030900FE02146404602F0DCFB02F03EFE53
:105AC0000020494602E00D80401C80B2B042FAD36B
:105AD000641CA4B2BC42EDD9E1E70000E81A002042
